{
  "contractName": "BetSlips",
  "abi": [
    {
      "constant": true,
      "inputs": [
        {
          "name": "",
          "type": "uint256"
        }
      ],
      "name": "betSlips",
      "outputs": [
        {
          "name": "better",
          "type": "address"
        },
        {
          "name": "amount",
          "type": "uint8"
        },
        {
          "name": "odd",
          "type": "uint8"
        }
      ],
      "payable": false,
      "stateMutability": "view",
      "type": "function"
    },
    {
      "constant": true,
      "inputs": [],
      "name": "betSlipsCount",
      "outputs": [
        {
          "name": "",
          "type": "uint256"
        }
      ],
      "payable": false,
      "stateMutability": "view",
      "type": "function"
    },
    {
      "constant": false,
      "inputs": [
        {
          "name": "_fixtureIds",
          "type": "uint8[]"
        },
        {
          "name": "_sides",
          "type": "uint8[]"
        },
        {
          "name": "_amount",
          "type": "uint8"
        },
        {
          "name": "_odd",
          "type": "uint8"
        }
      ],
      "name": "addBetSlip",
      "outputs": [],
      "payable": false,
      "stateMutability": "nonpayable",
      "type": "function"
    }
  ],
  "bytecode": "0x608060405234801561001057600080fd5b50610438806100206000396000f300608060405260043610610057576000357c0100000000000000000000000000000000000000000000000000000000900463ffffffff1680635023a0c91461005c578063897bb668146100e3578063b93e66bf146101a6575b600080fd5b34801561006857600080fd5b50610087600480360381019080803590602001909291905050506101d1565b604051808473ffffffffffffffffffffffffffffffffffffffff1673ffffffffffffffffffffffffffffffffffffffff1681526020018360ff1660ff1681526020018260ff1660ff168152602001935050505060405180910390f35b3480156100ef57600080fd5b506101a46004803603810190808035906020019082018035906020019080806020026020016040519081016040528093929190818152602001838360200280828437820191505050505050919291929080359060200190820180359060200190808060200260200160405190810160405280939291908181526020018383602002808284378201915050505050509192919290803560ff169060200190929190803560ff169060200190929190505050610235565b005b3480156101b257600080fd5b506101bb61032f565b6040518082815260200191505060405180910390f35b60006020528060005260406000206000915090508060000160009054906101000a900473ffffffffffffffffffffffffffffffffffffffff16908060000160149054906101000a900460ff16908060000160159054906101000a900460ff16905083565b6001600081548092919060010191905055506060604051908101604052803373ffffffffffffffffffffffffffffffffffffffff1681526020018360ff1681526020018260ff16815250600080600154815260200190815260200160002060008201518160000160006101000a81548173ffffffffffffffffffffffffffffffffffffffff021916908373ffffffffffffffffffffffffffffffffffffffff16021790555060208201518160000160146101000a81548160ff021916908360ff16021790555060408201518160000160156101000a81548160ff021916908360ff1602179055509050506103298484610335565b50505050565b60015481565b60008090505b825181101561040757828181518110151561035257fe5b906020019060200201516000806001548152602001908152602001600020600101600083815260200190815260200160002060000160006101000a81548160ff021916908360ff16021790555081818151811015156103ad57fe5b906020019060200201516000806001548152602001908152602001600020600101600083815260200190815260200160002060000160016101000a81548160ff021916908360ff160217905550808060010191505061033b565b5050505600a165627a7a723058200b09b12407351a321ee8cb6161a3ccffb1d62ac298823866d5bab6d6d8b23a7c0029",
  "source": "pragma solidity ^0.4.24;\n\ncontract BetSlips {\n    struct BetSlip {\n        address better;\n        uint8 amount;\n        uint8 odd;\n        mapping(uint => Bet) bets;\n    }\n\n    struct Bet {\n        uint8 fixtureId;\n        uint8 side;\n    }\n\n    mapping(uint => BetSlip) public betSlips;\n    uint public betSlipsCount;\n\n    function addBetSlip(uint8[] _fixtureIds, uint8[] _sides, uint8 _amount, uint8 _odd) public {\n        betSlipsCount++;\n        betSlips[betSlipsCount] = BetSlip(msg.sender, _amount, _odd);\n        addBetsToSlip(_fixtureIds, _sides);\n    }\n\n    function addBetsToSlip(uint8[] _fixtureIds, uint8[] _sides) private {\n        for (uint i = 0; i < _fixtureIds.length; i++) {\n            betSlips[betSlipsCount].bets[i].fixtureId = _fixtureIds[i];\n            betSlips[betSlipsCount].bets[i].side = _sides[i];\n        }\n    }\n}\n",
  "sourcePath": "/Users/wesselvanderpal/Project/ethereum/bet-dapp/contracts/BetSlips.sol",
  "compiler": {
    "name": "solc",
    "version": "0.4.24+commit.e67f0147.Emscripten.clang"
  },
  "schemaVersion": "2.0.1",
  "updatedAt": "2018-08-08T16:18:39.287Z"
}