{
  "contractName": "BetSlips",
  "abi": [
    {
      "constant": true,
      "inputs": [
        {
          "name": "",
          "type": "uint256"
        }
      ],
      "name": "betSlips",
      "outputs": [
        {
          "name": "better",
          "type": "address"
        },
        {
          "name": "amount",
          "type": "uint256"
        },
        {
          "name": "odd",
          "type": "uint256"
        },
        {
          "name": "betsCount",
          "type": "uint256"
        }
      ],
      "payable": false,
      "stateMutability": "view",
      "type": "function"
    },
    {
      "constant": true,
      "inputs": [],
      "name": "betSlipsCount",
      "outputs": [
        {
          "name": "",
          "type": "uint256"
        }
      ],
      "payable": false,
      "stateMutability": "view",
      "type": "function"
    },
    {
      "constant": false,
      "inputs": [
        {
          "name": "_fixtureIds",
          "type": "uint256[]"
        },
        {
          "name": "_sides",
          "type": "uint256[]"
        },
        {
          "name": "_amount",
          "type": "uint256"
        },
        {
          "name": "_odd",
          "type": "uint256"
        }
      ],
      "name": "addBetSlip",
      "outputs": [],
      "payable": false,
      "stateMutability": "nonpayable",
      "type": "function"
    },
    {
      "constant": true,
      "inputs": [
        {
          "name": "_id",
          "type": "uint256"
        }
      ],
      "name": "getBetSlip",
      "outputs": [
        {
          "name": "better",
          "type": "address"
        },
        {
          "name": "amount",
          "type": "uint256"
        },
        {
          "name": "odd",
          "type": "uint256"
        },
        {
          "name": "fixtureIds",
          "type": "uint256[]"
        },
        {
          "name": "sides",
          "type": "uint256[]"
        }
      ],
      "payable": false,
      "stateMutability": "view",
      "type": "function"
    }
  ],
  "bytecode": "0x608060405234801561001057600080fd5b506106b4806100206000396000f300608060405260043610610062576000357c0100000000000000000000000000000000000000000000000000000000900463ffffffff16806332d268a5146100675780635023a0c914610172578063b93e66bf146101f4578063e45a05821461021f575b600080fd5b34801561007357600080fd5b50610092600480360381019080803590602001909291905050506102dc565b604051808673ffffffffffffffffffffffffffffffffffffffff1673ffffffffffffffffffffffffffffffffffffffff1681526020018581526020018481526020018060200180602001838103835285818151815260200191508051906020019060200280838360005b838110156101175780820151818401526020810190506100fc565b50505050905001838103825284818151815260200191508051906020019060200280838360005b8381101561015957808201518184015260208101905061013e565b5050505090500197505050505050505060405180910390f35b34801561017e57600080fd5b5061019d600480360381019080803590602001909291905050506104ac565b604051808573ffffffffffffffffffffffffffffffffffffffff1673ffffffffffffffffffffffffffffffffffffffff16815260200184815260200183815260200182815260200194505050505060405180910390f35b34801561020057600080fd5b506102096104fc565b6040518082815260200191505060405180910390f35b34801561022b57600080fd5b506102da60048036038101908080359060200190820180359060200190808060200260200160405190810160405280939291908181526020018383602002808284378201915050505050509192919290803590602001908201803590602001908080602002602001604051908101604052809392919081815260200183836020028082843782019150505050505091929192908035906020019092919080359060200190929190505050610502565b005b600080600060608060608060008060008a81526020019081526020016000206003015460405190808252806020026020018201604052801561032d5781602001602082028038833980820191505090505b5092506000808a8152602001908152602001600020600301546040519080825280602002602001820160405280156103745781602001602082028038833980820191505090505b509150600090505b6000808a815260200190815260200160002060030154811015610432576000808a815260200190815260200160002060040160008281526020019081526020016000206000015483828151811015156103d157fe5b90602001906020020181815250506000808a8152602001908152602001600020600401600082815260200190815260200160002060010154828281518110151561041757fe5b9060200190602002018181525050808060010191505061037c565b6000808a815260200190815260200160002060000160009054906101000a900473ffffffffffffffffffffffffffffffffffffffff166000808b8152602001908152602001600020600101546000808c81526020019081526020016000206002015485859750975097509750975050505091939590929450565b60006020528060005260406000206000915090508060000160009054906101000a900473ffffffffffffffffffffffffffffffffffffffff16908060010154908060020154908060030154905084565b60015481565b6001600081548092919060010191905055506080604051908101604052803373ffffffffffffffffffffffffffffffffffffffff1681526020018381526020018281526020018551815250600080600154815260200190815260200160002060008201518160000160006101000a81548173ffffffffffffffffffffffffffffffffffffffff021916908373ffffffffffffffffffffffffffffffffffffffff1602179055506020820151816001015560408201518160020155606082015181600301559050506105d384846105d9565b50505050565b60008090505b82518110156106835782818151811015156105f657fe5b906020019060200201516000806001548152602001908152602001600020600401600083815260200190815260200160002060000181905550818181518110151561063d57fe5b90602001906020020151600080600154815260200190815260200160002060040160008381526020019081526020016000206001018190555080806001019150506105df565b5050505600a165627a7a723058207ba44f2075fb0e0fa44b1c27195b6ec44b0f5be6f519a888079e54e5a0cc42980029",
  "source": "pragma solidity ^0.4.24;\n\nimport './lib/Model.sol';\n\n/** @title Bet slips. */\ncontract BetSlips {\n    /** @dev Map of BetSlips */\n    mapping(uint => Model.BetSlip) public betSlips;\n    /** @dev Total count of betSlips */\n    uint public betSlipsCount;\n\n    /** @dev Adds a bet slip to the block\n      * @param _fixtureIds All fixture ids of a bet slip\n      * @param _sides All sides chosen of a bet in a bet slip\n      * @param _amount Total amount in a bet slip\n      * @param _odd Total odd of bet slip\n      */\n    function addBetSlip(uint[] _fixtureIds, uint[] _sides, uint _amount, uint _odd) public {\n        betSlipsCount++;\n        betSlips[betSlipsCount] = Model.BetSlip(msg.sender, _amount, _odd, _fixtureIds.length);\n        addBetsToSlip(_fixtureIds, _sides);\n    }\n\n    /** @dev Adds bets to a bet slip\n      * @param _fixtureIds All fixture ids of a bet slip\n      * @param _sides All Sides chosen of a bet in a bet slip\n      */\n    function addBetsToSlip(uint[] _fixtureIds, uint[] _sides) private {\n        for (uint i = 0; i < _fixtureIds.length; i++) {\n            betSlips[betSlipsCount].bets[i].fixtureId = _fixtureIds[i];\n            betSlips[betSlipsCount].bets[i].side = _sides[i];\n        }\n    }\n\n    /** @dev Get bets slip by id\n      * @param _id Id of bet slip\n      * @return better Better of bet slip\n      * @return amount Amount of bet slip\n      * @return odd Total odds of bet slip\n      * @return fixtureIds Fixture ids of bet slip\n      * @return sides Chosen sides of bet slip\n      */\n    function getBetSlip(uint _id) public view returns(address better, uint amount, uint odd, uint[] fixtureIds, uint[] sides) {\n        uint[] memory _fixtureIds = new uint[](betSlips[_id].betsCount);\n        uint[] memory _sides = new uint[](betSlips[_id].betsCount);\n\n        for (uint i = 0; i < betSlips[_id].betsCount; i++) {\n            _fixtureIds[i] = betSlips[_id].bets[i].fixtureId;\n            _sides[i] = betSlips[_id].bets[i].side;\n        }\n\n        return (\n        betSlips[_id].better,\n        betSlips[_id].amount,\n        betSlips[_id].odd,\n        _fixtureIds,\n        _sides\n        );\n    }\n}\n",
  "sourcePath": "/Users/wesselvanderpal/Project/ethereum/bet-dapp/contracts/BetSlips.sol",
  "compiler": {
    "name": "solc",
    "version": "0.4.24+commit.e67f0147.Emscripten.clang"
  },
  "schemaVersion": "2.0.1",
  "updatedAt": "2018-08-24T13:54:43.990Z"
}