{
  "contractName": "MainAccount",
  "abi": [
    {
      "constant": true,
      "inputs": [],
      "name": "mainAccount",
      "outputs": [
        {
          "name": "",
          "type": "address"
        }
      ],
      "payable": false,
      "stateMutability": "view",
      "type": "function"
    },
    {
      "constant": true,
      "inputs": [],
      "name": "getMainAccountBalance",
      "outputs": [
        {
          "name": "",
          "type": "uint256"
        }
      ],
      "payable": false,
      "stateMutability": "view",
      "type": "function"
    },
    {
      "constant": true,
      "inputs": [],
      "name": "getMainAccount",
      "outputs": [
        {
          "name": "",
          "type": "address"
        }
      ],
      "payable": false,
      "stateMutability": "view",
      "type": "function"
    }
  ],
  "bytecode": "0x608060405234801561001057600080fd5b506101c8806100206000396000f300608060405260043610610057576000357c0100000000000000000000000000000000000000000000000000000000900463ffffffff1680630ca7ff3b1461005c5780631123cfe0146100b35780634c0b70f61461010a575b600080fd5b34801561006857600080fd5b50610071610135565b604051808273ffffffffffffffffffffffffffffffffffffffff1673ffffffffffffffffffffffffffffffffffffffff16815260200191505060405180910390f35b3480156100bf57600080fd5b506100c8610151565b604051808273ffffffffffffffffffffffffffffffffffffffff1673ffffffffffffffffffffffffffffffffffffffff16815260200191505060405180910390f35b34801561011657600080fd5b5061011f610169565b6040518082815260200191505060405180910390f35b600073726c7f2062bb3dd47f5aae72975a334ba8e60fe8905090565b73726c7f2062bb3dd47f5aae72975a334ba8e60fe881565b600073726c7f2062bb3dd47f5aae72975a334ba8e60fe873ffffffffffffffffffffffffffffffffffffffff16319050905600a165627a7a723058205cf10df9d9e1e2d78f3bf655c44f33cc91e6f4a63968b95c03c0dbaa572627200029",
  "source": "pragma solidity ^0.4.24;\n\ncontract MainAccount {\n    address constant public mainAccount = 0x726c7f2062bb3dd47f5aae72975a334ba8e60fe8;\n\n    function getMainAccountBalance() public view returns(uint256) {\n        return mainAccount.balance;\n    }\n\n    function getMainAccount() public view returns(address) {\n        return mainAccount;\n    }\n}\n",
  "sourcePath": "/Users/wesselvanderpal/Project/ethereum/bet-dapp/contracts/MainAccount.sol",
  "compiler": {
    "name": "solc",
    "version": "0.4.24+commit.e67f0147.Emscripten.clang"
  },
  "schemaVersion": "2.0.1",
  "updatedAt": "2018-08-16T13:33:34.144Z"
}