{
  "contractName": "MainAccount",
  "abi": [
    {
      "constant": true,
      "inputs": [],
      "name": "mainAccount",
      "outputs": [
        {
          "name": "",
          "type": "address"
        }
      ],
      "payable": false,
      "stateMutability": "view",
      "type": "function"
    },
    {
      "constant": true,
      "inputs": [],
      "name": "balanceOfMain",
      "outputs": [
        {
          "name": "",
          "type": "uint256"
        }
      ],
      "payable": false,
      "stateMutability": "view",
      "type": "function"
    }
  ],
  "bytecode": "0x608060405234801561001057600080fd5b5061014a806100206000396000f30060806040526004361061004c576000357c0100000000000000000000000000000000000000000000000000000000900463ffffffff1680630e018e06146100515780631123cfe01461007c575b600080fd5b34801561005d57600080fd5b506100666100d3565b6040518082815260200191505060405180910390f35b34801561008857600080fd5b50610091610106565b604051808273ffffffffffffffffffffffffffffffffffffffff1673ffffffffffffffffffffffffffffffffffffffff16815260200191505060405180910390f35b600073abeedd8484ac4668f7aa427c887f25f3271a0f3173ffffffffffffffffffffffffffffffffffffffff1631905090565b73abeedd8484ac4668f7aa427c887f25f3271a0f31815600a165627a7a723058206d0abf2c41cee4d159dd7f0934ab6bc76e965b457c3c98bb13bc52b9d26f28250029",
  "source": "pragma solidity ^0.4.24;\n\ncontract MainAccount {\n    address constant public mainAccount = 0xabeedd8484ac4668f7aa427c887f25f3271a0f31;\n\n    function balanceOfMain() public view returns(uint256) {\n        return mainAccount.balance;\n    }\n}\n",
  "sourcePath": "/Users/wesselvanderpal/Project/ethereum/bet-dapp/contracts/MainAccount.sol",
  "compiler": {
    "name": "solc",
    "version": "0.4.24+commit.e67f0147.Emscripten.clang"
  },
  "schemaVersion": "2.0.1",
  "updatedAt": "2018-08-08T09:34:22.122Z"
}