{
  "contractName": "MainAccount",
  "abi": [
    {
      "constant": true,
      "inputs": [],
      "name": "mainAccount",
      "outputs": [
        {
          "name": "",
          "type": "address"
        }
      ],
      "payable": false,
      "stateMutability": "view",
      "type": "function"
    },
    {
      "constant": true,
      "inputs": [],
      "name": "getMainAccountBalance",
      "outputs": [
        {
          "name": "balance",
          "type": "uint256"
        }
      ],
      "payable": false,
      "stateMutability": "view",
      "type": "function"
    },
    {
      "constant": true,
      "inputs": [],
      "name": "getMainAccount",
      "outputs": [
        {
          "name": "account",
          "type": "address"
        }
      ],
      "payable": false,
      "stateMutability": "view",
      "type": "function"
    }
  ],
  "bytecode": "0x608060405234801561001057600080fd5b506101c8806100206000396000f300608060405260043610610057576000357c0100000000000000000000000000000000000000000000000000000000900463ffffffff1680630ca7ff3b1461005c5780631123cfe0146100b35780634c0b70f61461010a575b600080fd5b34801561006857600080fd5b50610071610135565b604051808273ffffffffffffffffffffffffffffffffffffffff1673ffffffffffffffffffffffffffffffffffffffff16815260200191505060405180910390f35b3480156100bf57600080fd5b506100c8610151565b604051808273ffffffffffffffffffffffffffffffffffffffff1673ffffffffffffffffffffffffffffffffffffffff16815260200191505060405180910390f35b34801561011657600080fd5b5061011f610169565b6040518082815260200191505060405180910390f35b600073cf3105d772a86966a4da63c4e86dc6c47701c2d1905090565b73cf3105d772a86966a4da63c4e86dc6c47701c2d181565b600073cf3105d772a86966a4da63c4e86dc6c47701c2d173ffffffffffffffffffffffffffffffffffffffff16319050905600a165627a7a72305820822c833923e5e09bacc17892b29bb33d1cac2969e40a2c594bdaf6bbc338e9750029",
  "source": "pragma solidity ^0.4.24;\n\n/** @title Main account. */\ncontract MainAccount {\n    /** @dev Hardcoded main account */\n    address constant public mainAccount = 0xCf3105d772A86966a4DA63C4e86dC6C47701c2d1;\n\n    /** @dev Returns balance of main account\n      * @return balance Balance of main account.\n      */\n    function getMainAccountBalance() public view returns (uint256 balance) {\n        return mainAccount.balance;\n    }\n\n    /** @dev Returns main account\n      * @return mainAccount Address main acount\n      */\n    function getMainAccount() public view returns (address account) {\n        return mainAccount;\n    }\n}\n",
  "sourcePath": "/Users/wesselvanderpal/Project/ethereum/bet-dapp/contracts/MainAccount.sol",
  "compiler": {
    "name": "solc",
    "version": "0.4.24+commit.e67f0147.Emscripten.clang"
  },
  "schemaVersion": "2.0.1",
  "updatedAt": "2018-08-24T13:54:43.988Z"
}