{
  "contractName": "MainAccount",
  "abi": [
    {
      "constant": true,
      "inputs": [],
      "name": "mainAccount",
      "outputs": [
        {
          "name": "",
          "type": "address"
        }
      ],
      "payable": false,
      "stateMutability": "view",
      "type": "function"
    },
    {
      "constant": true,
      "inputs": [],
      "name": "balanceOfMain",
      "outputs": [
        {
          "name": "",
          "type": "uint256"
        }
      ],
      "payable": false,
      "stateMutability": "view",
      "type": "function"
    }
  ],
  "bytecode": "0x608060405234801561001057600080fd5b5061014a806100206000396000f30060806040526004361061004c576000357c0100000000000000000000000000000000000000000000000000000000900463ffffffff1680630e018e06146100515780631123cfe01461007c575b600080fd5b34801561005d57600080fd5b506100666100d3565b6040518082815260200191505060405180910390f35b34801561008857600080fd5b50610091610106565b604051808273ffffffffffffffffffffffffffffffffffffffff1673ffffffffffffffffffffffffffffffffffffffff16815260200191505060405180910390f35b600073726c7f2062bb3dd47f5aae72975a334ba8e60fe873ffffffffffffffffffffffffffffffffffffffff1631905090565b73726c7f2062bb3dd47f5aae72975a334ba8e60fe8815600a165627a7a72305820a69672b4a558d0806c1b3bfb3e8378b72db22a5fb8a6a21e51b3e58c3887de2c0029",
  "source": "pragma solidity ^0.4.24;\n\ncontract MainAccount {\n    address constant public mainAccount = 0x726C7f2062BB3dD47F5Aae72975A334BA8e60Fe8;\n\n    function balanceOfMain() public view returns(uint256) {\n        return mainAccount.balance;\n    }\n}\n",
  "sourcePath": "/Users/wesselvanderpal/Project/ethereum/bet-dapp/contracts/MainAccount.sol",
  "compiler": {
    "name": "solc",
    "version": "0.4.24+commit.e67f0147.Emscripten.clang"
  },
  "schemaVersion": "2.0.1",
  "updatedAt": "2018-08-16T12:31:50.796Z"
}