{
  "contractName": "MainAccount",
  "abi": [
    {
      "inputs": [
        {
          "name": "_mainAccount",
          "type": "address"
        }
      ],
      "payable": false,
      "stateMutability": "nonpayable",
      "type": "constructor"
    },
    {
      "constant": true,
      "inputs": [],
      "name": "getMainAccountBalance",
      "outputs": [
        {
          "name": "balance",
          "type": "uint256"
        }
      ],
      "payable": false,
      "stateMutability": "view",
      "type": "function"
    },
    {
      "constant": true,
      "inputs": [],
      "name": "getMainAccount",
      "outputs": [
        {
          "name": "account",
          "type": "address"
        }
      ],
      "payable": false,
      "stateMutability": "view",
      "type": "function"
    }
  ],
  "bytecode": "0x608060405234801561001057600080fd5b506040516020806101eb83398101806040528101908080519060200190929190505050806000806101000a81548173ffffffffffffffffffffffffffffffffffffffff021916908373ffffffffffffffffffffffffffffffffffffffff16021790555050610168806100836000396000f30060806040526004361061004c576000357c0100000000000000000000000000000000000000000000000000000000900463ffffffff1680630ca7ff3b146100515780634c0b70f6146100a8575b600080fd5b34801561005d57600080fd5b506100666100d3565b604051808273ffffffffffffffffffffffffffffffffffffffff1673ffffffffffffffffffffffffffffffffffffffff16815260200191505060405180910390f35b3480156100b457600080fd5b506100bd6100fc565b6040518082815260200191505060405180910390f35b60008060009054906101000a900473ffffffffffffffffffffffffffffffffffffffff16905090565b60008060009054906101000a900473ffffffffffffffffffffffffffffffffffffffff1673ffffffffffffffffffffffffffffffffffffffff16319050905600a165627a7a723058203623fb85c34d4159bd842f1c4af99c41e7876d0b969e73c7c3e44d5abc57c4230029",
  "source": "pragma solidity ^0.4.24;\n\n/** @title Main account. */\ncontract MainAccount {\n    /** @dev Hardcoded main account */\n    address mainAccount;\n\n    constructor(address _mainAccount) public {\n        mainAccount = _mainAccount;\n    }\n\n    /** @dev Returns balance of main account\n      * @return balance Balance of main account.\n      */\n    function getMainAccountBalance() public view returns (uint256 balance) {\n        return mainAccount.balance;\n    }\n\n    /** @dev Returns main account\n      * @return account Address main account\n      */\n    function getMainAccount() public view returns (address account) {\n        return mainAccount;\n    }\n}\n",
  "sourcePath": "/Users/wesselvanderpal/Project/ethereum/bet-dapp/contracts/MainAccount.sol",
  "compiler": {
    "name": "solc",
    "version": "0.4.24+commit.e67f0147.Emscripten.clang"
  },
  "schemaVersion": "2.0.1",
  "updatedAt": "2018-08-24T14:06:59.082Z"
}